{
  "_format": "hh-sol-artifact-1",
  "contractName": "BirdMigration",
  "sourceName": "contracts/BirdMigration.sol",
  "abi": [
    {
      "inputs": [
        {
          "internalType": "address",
          "name": "tokenAddress",
          "type": "address"
        }
      ],
      "stateMutability": "nonpayable",
      "type": "constructor"
    },
    {
      "anonymous": false,
      "inputs": [
        {
          "indexed": true,
          "internalType": "address",
          "name": "userEthAddr",
          "type": "address"
        },
        {
          "indexed": false,
          "internalType": "string",
          "name": "userSolAddr",
          "type": "string"
        },
        {
          "indexed": false,
          "internalType": "uint256",
          "name": "amount",
          "type": "uint256"
        }
      ],
      "name": "TokensMigrated",
      "type": "event"
    },
    {
      "inputs": [
        {
          "internalType": "uint256",
          "name": "amount",
          "type": "uint256"
        },
        {
          "internalType": "string",
          "name": "solanaAddr",
          "type": "string"
        }
      ],
      "name": "migrate",
      "outputs": [],
      "stateMutability": "nonpayable",
      "type": "function"
    },
    {
      "inputs": [],
      "name": "teamTreasuryAddr",
      "outputs": [
        {
          "internalType": "address",
          "name": "",
          "type": "address"
        }
      ],
      "stateMutability": "view",
      "type": "function"
    },
    {
      "inputs": [],
      "name": "token",
      "outputs": [
        {
          "internalType": "contract IERC20",
          "name": "",
          "type": "address"
        }
      ],
      "stateMutability": "view",
      "type": "function"
    }
  ],
  "bytecode": "0x60806040527344f54a506330573fdc7b7e99afddeed728ee089a600160006101000a81548173ffffffffffffffffffffffffffffffffffffffff021916908373ffffffffffffffffffffffffffffffffffffffff16021790555034801561006557600080fd5b50604051610aba380380610aba83398181016040528101906100879190610130565b806000806101000a81548173ffffffffffffffffffffffffffffffffffffffff021916908373ffffffffffffffffffffffffffffffffffffffff1602179055505061015d565b600080fd5b600073ffffffffffffffffffffffffffffffffffffffff82169050919050565b60006100fd826100d2565b9050919050565b61010d816100f2565b811461011857600080fd5b50565b60008151905061012a81610104565b92915050565b600060208284031215610146576101456100cd565b5b60006101548482850161011b565b91505092915050565b61094e8061016c6000396000f3fe608060405234801561001057600080fd5b50600436106100415760003560e01c806350ffc01214610046578063ee2053dc14610064578063fc0c546a14610080575b600080fd5b61004e61009e565b60405161005b91906103fa565b60405180910390f35b61007e600480360381019061007991906105a5565b6100c4565b005b610088610395565b6040516100959190610660565b60405180910390f35b600160009054906101000a900473ffffffffffffffffffffffffffffffffffffffff1681565b60008054906101000a900473ffffffffffffffffffffffffffffffffffffffff1673ffffffffffffffffffffffffffffffffffffffff1663dd62ed3e33306040518363ffffffff1660e01b815260040161011f92919061067b565b602060405180830381865afa15801561013c573d6000803e3d6000fd5b505050506040513d601f19601f8201168201806040525081019061016091906106b9565b8211156101a2576040517f08c379a000000000000000000000000000000000000000000000000000000000815260040161019990610743565b60405180910390fd5b60008054906101000a900473ffffffffffffffffffffffffffffffffffffffff1673ffffffffffffffffffffffffffffffffffffffff166370a08231336040518263ffffffff1660e01b81526004016101fb91906103fa565b602060405180830381865afa158015610218573d6000803e3d6000fd5b505050506040513d601f19601f8201168201806040525081019061023c91906106b9565b82111561027e576040517f08c379a0000000000000000000000000000000000000000000000000000000008152600401610275906107af565b60405180910390fd5b60008054906101000a900473ffffffffffffffffffffffffffffffffffffffff1673ffffffffffffffffffffffffffffffffffffffff166323b872dd33600160009054906101000a900473ffffffffffffffffffffffffffffffffffffffff16856040518463ffffffff1660e01b81526004016102fd939291906107de565b6020604051808303816000875af115801561031c573d6000803e3d6000fd5b505050506040513d601f19601f82011682018060405250810190610340919061084d565b503373ffffffffffffffffffffffffffffffffffffffff167f5023c63b334d8496573eb9e8d08b69d646121568c847ba8974af8152cd00ce2282846040516103899291906108e8565b60405180910390a25050565b60008054906101000a900473ffffffffffffffffffffffffffffffffffffffff1681565b600073ffffffffffffffffffffffffffffffffffffffff82169050919050565b60006103e4826103b9565b9050919050565b6103f4816103d9565b82525050565b600060208201905061040f60008301846103eb565b92915050565b6000604051905090565b600080fd5b600080fd5b6000819050919050565b61043c81610429565b811461044757600080fd5b50565b60008135905061045981610433565b92915050565b600080fd5b600080fd5b6000601f19601f8301169050919050565b7f4e487b7100000000000000000000000000000000000000000000000000000000600052604160045260246000fd5b6104b282610469565b810181811067ffffffffffffffff821117156104d1576104d061047a565b5b80604052505050565b60006104e4610415565b90506104f082826104a9565b919050565b600067ffffffffffffffff8211156105105761050f61047a565b5b61051982610469565b9050602081019050919050565b82818337600083830152505050565b6000610548610543846104f5565b6104da565b90508281526020810184848401111561056457610563610464565b5b61056f848285610526565b509392505050565b600082601f83011261058c5761058b61045f565b5b813561059c848260208601610535565b91505092915050565b600080604083850312156105bc576105bb61041f565b5b60006105ca8582860161044a565b925050602083013567ffffffffffffffff8111156105eb576105ea610424565b5b6105f785828601610577565b9150509250929050565b6000819050919050565b600061062661062161061c846103b9565b610601565b6103b9565b9050919050565b60006106388261060b565b9050919050565b600061064a8261062d565b9050919050565b61065a8161063f565b82525050565b60006020820190506106756000830184610651565b92915050565b600060408201905061069060008301856103eb565b61069d60208301846103eb565b9392505050565b6000815190506106b381610433565b92915050565b6000602082840312156106cf576106ce61041f565b5b60006106dd848285016106a4565b91505092915050565b600082825260208201905092915050565b7f416c6c6f77616e6365206e6f742073756666696369656e740000000000000000600082015250565b600061072d6018836106e6565b9150610738826106f7565b602082019050919050565b6000602082019050818103600083015261075c81610720565b9050919050565b7f42616c616e6365206e6f742073756666696369656e7400000000000000000000600082015250565b60006107996016836106e6565b91506107a482610763565b602082019050919050565b600060208201905081810360008301526107c88161078c565b9050919050565b6107d881610429565b82525050565b60006060820190506107f360008301866103eb565b61080060208301856103eb565b61080d60408301846107cf565b949350505050565b60008115159050919050565b61082a81610815565b811461083557600080fd5b50565b60008151905061084781610821565b92915050565b6000602082840312156108635761086261041f565b5b600061087184828501610838565b91505092915050565b600081519050919050565b60005b838110156108a3578082015181840152602081019050610888565b60008484015250505050565b60006108ba8261087a565b6108c481856106e6565b93506108d4818560208601610885565b6108dd81610469565b840191505092915050565b6000604082019050818103600083015261090281856108af565b905061091160208301846107cf565b939250505056fea264697066735822122080d263317400aee56bfc126a887b5dd3562a6d8787dbe88666232c3accf819fd64736f6c63430008180033",
  "linkReferences": {},
  "deployedLinkReferences": {}
}